S0120000474152414745444F4F522E7372656337
S113000029C0000042C0000040C0000073C10000CD
S11300103CC000003AC0000038C0000036C00000F8
S113002034C0000032C0000030C000002EC0000008
S11300302CC000002AC0000028C0000026C0000018
S113004024C0000022C0000020C000001EC0000028
S11300501CC0000011241FBECFE5D4E0DEBFCDBF1D
S113006011E0A0E6B0E0E8E1F8E002C005900D92EE
S1130070AA30B107D9F711E0AAE0B1E001C01D929E
S1130080A832B107E1F780D3C5C3BACF089510925F
S11300900A0110920C0110920B0110920E011092A1
S11300A00D011092100110920F0110921201109282
S11300B01101109214011092130110921601109262
S11300C01501109218011092170110921A01109242
S11300D01901089589B320B396B32C709370922BB1
S11300E08295807F892B08951F93CF93DF93182FD8
S11300F0F1DFC82F80FF24C080910B0190910C0187
S11301008431910538F4810F911D90930C018093F3
S11301100B011AC084319105B9F480E690E0DBD27A
S113012080910A01816080930A0180910B01909172
S11301300C01810F911D90930C0180930B0104C05D
S113014010920C0110920B01C1FF24C080910D018B
S113015090910E018431910538F4810F911D909393
S11301600E0180930D011AC084319105B9F488E61B
S113017090E0B1D280910A01826080930A0180915B
S11301800D0190910E01810F911D90930E018093AA
S11301900D0104C010920E0110920D01C2FF26C081
S11301A080910F019091100123E0883E920738F46A
S11301B0810F911D9093100180930F011BC023E0C8
S11301C0883E9207B9F48FE690E085D280910A01C7
S11301D0846080930A0180910F0190911001810F36
S11301E0911D9093100180930F0104C0109210018F
S11301F010920F01C3FF24C080911101909112014C
S11302008431910538F4810F911D909312018093EC
S113021011011AC084319105B9F489E790E05BD2E9
S113022080910A01886080930A0180911101909164
S11302301201810F911D909312018093110104C04A
S11302401092120110921101DF91CF911F91089524
S113025080910A01982F907F90930A0108958093CA
S11302601B01282F30E022953295307F3227207FE2
S1130270322722BB807F88BB0895CF93C0911B0196
S11302808330A0F421E130E0A90102C0440F551FDE
S11302908A95E2F7CC7CC42B81E890E01CD28C2FA9
S11302A04AD28DE890E017D28C2FD9DFCF910895F0
S11302B0CF93C0911B01CC7C81E890E00CD28C2FB1
S11302C03AD28DE890E007D28C2FC9DFCF91089500
S11302D010921B0180911B01C2CF80911B01807879
S11302E0803821F480911B018F7703C080911B011A
S11302F08068B5CF1F920F920FB60F9211248F937F
S11303009F93AF93BF9380911D0190911E01A09183
S11303101F01B09120010196A11DB11D80931D0103
S113032090931E01A0931F01B093200180911C01A2
S11303308F5F80931C01BF91AF919F918F910F901C
S11303400FBE0F901F9018958CE185BD14BC1092C0
S11303501D0110921E0110921F01109220018DE7C1
S113036083BD089514BC89B7806889BF88B7806845
S113037088BF08950F2EF4EF8F2EF1E09F2EF0E04A
S1130380AF2EF0E0BF2EF02D0F2EFAE0CF2EF0E0CE
S1130390DF2EF0E0EF2EF0E0FF2EF02D80911C0117
S11303A08823E1F360911D0170911E0180911F016A
S11303B090912001A50194010BD2DC01CB0100979F
S11303C0A105B10511F489DF32C060911D0170915E
S11303D01E0180911F0190912001A7019601F8D17F
S11303E0DC01CB0182309105A105B10519F48AE045
S11303F07BDE1DC060911D0170911E0180911F0163
S113040090912001A7019601E3D1DC01CB01843056
S11304109105A105B10519F48AE01CD008C08091AA
S11304201D0190911E01A0911F01B0912001109215
S11304301C01B4CF4FDE10922101109223011092BF
S1130440220110922501109224011092270110928A
S113045026012ECFCF93C091210190E0409122013B
S113046050912301480F591F5093230140932201B7
S11304702091240130912501820F931F909325012F
S113048080932401C63009F48FC0C73078F4C33098
S113049009F451C0C43020F4C23009F0B7C028C0F8
S11304A0C430B9F0C53009F0B1C05BC0C93009F43B
S11304B089C0CA3038F4C73009F444C0C83009F0E0
S11304C0A5C079C0CA3009F48CC0CB3009F09EC0F5
S11304D08EC0BEDE82FFB7C01092230110922201AB
S11304E0109225011092240180E0C7DEC5E0ABC064
S11304F0AFDE80FF07C01092230110922201D8DEE4
S1130500C3E0A1C082FF07C0109223011092220110
S1130510CFDEC8E098C0809124019091250125E7A1
S11305208033920708F48FC01092230110922201A5
S1130530BFDEC8E088C083E14838580708F483C0A8
S1130540C4E081C085DE82FF7EC010922301109238
S11305502201109225011092240181E08EDEC2E076
S113056072C076DE81FF07C010922301109222012F
S11305709FDEC6E068C082FF07C01092230110927C
S1130580220196DECAE05FC080912401909125018A
S113059025E78033920708F456C010922301109285
S11305A0220186DECAE04FC083E14838580708F4C8
S11305B04AC0C7E048C027E0403D520708F443C0A2
S11305C0C9E041C045DE82FF3EC010922301109273
S11305D02201109225011092240180E04EDEC5E034
S11305E032C087E0403D580770F1CBE02CC030DECC
S11305F082FF29C01092230110922201109225013A
S11306001092240181E039DEC2E01DC023E14838A4
S11306105207A0F01DDEC82F109223011092220170
S113062080E990E058D08C2F86D08CE990E053D0AC
S1130630C0FD06C0C1FF06C0C7E005C0C0E003C0DE
S1130640C4E001C0C9E0809121018C1771F08FE9E9
S113065090E041D0809121014CD085EA90E03BD0DC
S11306608C2F47D08CE990E036D0C0932101CF91F4
S113067008950F931F93A0E0B0E0880F991FAA1F5D
S1130680BB1F880F991FAA1FBB1F9C01AD01220F1E
S1130690331F441F551F220F331F441F551F60E093
S11306A072E18AE790E094D089019A01802F815009
S11306B089B90150104020403040012F122F232FC0
S11306C0332700BD88E18AB91F910F9108955D9B7E
S11306D0FECF8CB90895CF93DF93EC0188818823F2
S11306E029F02196F4DF89918823E1F7DF91CF91F6
S11306F00895CF93DF9300D000D0CDB7DEB71C822E
S1130700FE01349623E030E04AE021503040642F6B
S113071053D0905D92938823C1F781E090E08C0FD1
S11307209D1F820F931FD7DF0F900F900F900F9094
S1130730DF91CF910895CF93DF9300D00F92CDB77F
S1130740DEB71B82982F9F7029EF30E0F901E90F83
S1130750F11D90819A8382958F70280F311DF901C4
S113076080818983CE010196B6DF0F900F900F90A0
S1130770DF91CF9108958ADC80EF81BB12BA87BBE9
S113078018BA8FE08BBB0895F894F5DF80E096E902
S113079070DFDADD9DDD7BDC8AEA90E09CDF8FECA4
S11307A090E099DF47DEDEDD78948DED90E093DF15
S11307B0E1DD80E090E00895991B79E004C0991F81
S11307C0961708F0961B881F7A95C9F780950895A7
S11307D0A1E21A2EAA1BBB1BFD010DC0AA1FBB1F41
S11307E0EE1FFF1FA217B307E407F50720F0A21BB3
S11307F0B30BE40BF50B661F771F881F991F1A9420
S113080069F760957095809590959B01AC01BD0149
S10B0810CF010895F894FFCF15
S1130818434C4F53450D0A004F50454E0D0A0054A2
S11308285249474745520D0A004C494748540D0A56
S11308380072656C6179207365743A20000D0A00B2
S1130848534D20496E69743A203078000D0A0043EC
S11308584F533A2000202D3E20004761726167659E
S113086820446F6F7220436F6E74726F6C6C657284
S1130878205374617274696E672E2E2E0D0A005609
S1130888657273696F6E20312E300D0A005254431D
S1130898207363686564756C65722073746172741F
S11308A8696E672E2E2E0D0A0030313233343536F8
S10D08B837383941424344454600F5
S9030000FC
